:020000040000FA
:040000000BEF3DF0D5
:1079D400016E01C083FF1200196E19C01CF0FCEC8B
:1079E4003EF01200196E19C01DF0FCEC3EF01200BE
:1079F400010EC26E0B0EC16E010EC06E1200949287
:107A04009494030ECA12CA840C0EBD120C0EBA1240
:107A1400120000EE1AF00A0EEE6AE806FDE1000E0E
:107A2400F86E000153EF3DF008500A02F3CF0CF05A
:107A3400F4CF0DF008500B02F3500D2609500A0242
:107A4400F3500D260CC008F00DC009F01200076EAB
:107A540084820750EAEC3CF08494000E026E030E1C
:107A6400016ECFEC3DF08492000E026E030E016EA7
:107A7400CFEC3DF084821200076E84820750EAEC5A
:107A84003CF08484000E026E030E016ECFEC3DF0D8
:107A94008492000E026E030E016ECFEC3DF08482E0
:107AA4001200060EC16E010E936E000E946E000E4F
:107AB400956E000E966EF80E936E6FEC3DF0FAEC38
:107AC4003CF01B0EF4EC3CF0190EEEEC3CF071ECC7
:107AD4003EF069EF3DF000EF00F084928494000ED4
:107AE400026E140E016ECFEC3DF08482380E29EC48
:107AF4003DF0000E026E050E016ECFEC3DF0380E27
:107B040029EC3DF0000E026E010E016ECFEC3DF04B
:107B1400380E29EC3DF0080E29EC3DF00F0E29EC4F
:107B24003DF0010E29EC3DF0380E29EC3DF0800EBD
:107B340029EC3DF0120003500410D8B4A4EF3DF03A
:107B4400A6EF3DF0CAEF3DF0010E056EAEEF3DF03D
:107B5400D89003360436052A04AEB3EF3DF0B5EFF2
:107B64003DF0AAEF3DF00350015C04500258D8A048
:107B7400BEEF3DF0C0EF3DF0C4EF3DF00350015EB9
:107B84000450025AD89004320332052EB5EF3DF06A
:107B940001C001F002C002F01200000E046E000EDB
:107BA400036EF5EF3DF0000E056E280E0564DDEF63
:107BB4003DF0DFEF3DF0E1EF3DF0F3EF3DF0000E7F
:107BC400066E020E0664E9EF3DF0EBEF3DF0EDEFDB
:107BD4003DF0F0EF3DF0062AE3EF3DF0052AD7EF44
:107BE4003DF0034A042A0150035C02500458D8A013
:107BF400FEEF3DF000EF3EF0D5EF3DF01200176EC2
:107C0400010ECB24086E096A000E092217C00AF07F
:107C14000B6A16EC3DF008C018F009C019F018C042
:107C24000EF019C00FF0000E116E190E106E37EC25
:107C34003EF00EC018F00FC019F0FF0E1816030E18
:107C4400191618C015F019C016F0D890163215324E
:107C5400D890163215321550BE6E18C015F0030EAA
:107C640015161538F00BBD121200000E136E000E1F
:107C7400126E10501110D8B442EF3EF044EF3EF0B3
:107C84006CEF3EF0010E146E4CEF3EF0D8901036BF
:107C94001136142A11AE51EF3EF053EF3EF048EF87
:107CA4003EF0D8901236133610500E5C11500F5817
:107CB400D8A05FEF3EF061EF3EF066EF3EF010506B
:107CC4000E5E11500F5A1280D89011321032142EB9
:107CD40053EF3EF012C00EF013C00FF0120001EC8F
:107CE4003DF0000EB4EC3EF001C008F002C009F013
:107CF400000E0B6E0A0E0A6E16EC3DF008C00EF074
:107D040009C00FF0000E116ECC0E106E37EC3EF071
:107D14000E501A6E1A501D5CD8B093EF3EF095EFDA
:107D24003EF09CEF3EF0640E1B6E630E01EC3EF0E1
:107D3400B1EF3EF01C501A5CD8B0A3EF3EF0A5EFB3
:107D44003EF0ACEF3EF0000E1B6E000E01EC3EF078
:107D5400B1EF3EF0320E1B6E320E01EC3EF0FCEC45
:107D64003EF01200076EC3EF3EF0010EC26EDCEF70
:107D74003EF0090EC26EDCEF3EF0110EC26EDCEF77
:107D84003EF00750036E046A0450000AD8B4CDEFE5
:107D94003EF0DCEF3EF00350000AD8B4B7EF3EF0FB
:107DA400010AD8B4BBEF3EF0030AD8B4BFEF3EF0EB
:107DB400DCEF3EF0C282C2B2E2EF3EF0E4EF3EF00E
:107DC400DDEF3EF0C3CF03F0060E046ED89003320D
:107DD400042EE8EF3EF00350C4CF05F0066AD890B5
:107DE40005360636D890053606360510016E06505F
:107DF400026E1200000EB4EC3EF001C008F002C0A6
:107E040009F0000E0B6E0A0E0A6E16EC3DF008C067
:107E14000EF009C00FF0000E116ECC0E106E37EC90
:107E24003EF00E501A6E800E29EC3DF01AC015F08B
:107E3400166A1E0E176E000E186E7CEC3FF0540E80
:107E44003EEC3DF01F503EEC3DF020503EEC3DF04A
:107E540021503EEC3DF022503EEC3DF01DC015F0AB
:107E6400166A1E0E176E000E186E7CEC3FF0480E5C
:107E74003EEC3DF01F503EEC3DF020503EEC3DF01A
:107E840021503EEC3DF022503EEC3DF01CC015F07C
:107E9400166A1E0E176E000E186E7CEC3FF04C0E28
:107EA4003EEC3DF01F503EEC3DF020503EEC3DF0EA
:107EB40021503EEC3DF022503EEC3DF0C00E29EC4A
:107EC4003DF01BC015F0166A1E0E176E000E186EDC
:107ED4007CEC3FF0430E3EEC3DF01F503EEC3DF099
:107EE40020503EEC3DF021503EEC3DF022503EEC63
:107EF4003DF0120015C00EF016C00FF0270E116EE3
:107F0400100E106E37EC3EF00E50300F17C0D9FF34
:107F140018C0DAFFDF6E20EE01F01750D926185092
:107F2400DA22270E046E100E036E15C001F016C07F
:107F340002F09DEC3DF001C00EF002C00FF0030E04
:107F4400116EE80E106E37EC3EF00E50300FDF6EFF
:107F540020EE02F01750D9261850DA22030E046ED0
:107F6400E80E036E15C001F016C002F09DEC3DF062
:107F740001C00EF002C00FF0000E116E640E106E00
:107F840037EC3EF00E50300FDF6E20EE03F017504A
:107F9400D9261850DA22000E046E640E036E15C042
:107FA40001F016C002F09DEC3DF001C00EF002C0DD
:107FB4000FF0000E116E0A0E106E37EC3EF00E50EC
:107FC400300FDF6E20EE04F01750D9261850DA2255
:107FD40015C001F016C002F0000E046E0A0E036E06
:107FE4009DEC3DF00150300FDF6E20EE05F0175090
:0C7FF400D9261850DA22000EDF6E1200B1
:020000040020DA
:08000000FFFFFFFFFFFFFFFF00
:020000040030CA
:0E000000FF021F00FF8381FF0FC00FE00F40C3
:00000001FF
